{
  "_format": "hh-sol-artifact-1",
  "contractName": "Funding",
  "sourceName": "contracts/Funding.sol",
  "abi": [
    {
      "inputs": [
        {
          "internalType": "address",
          "name": "_wallet",
          "type": "address"
        },
        {
          "internalType": "uint256",
          "name": "_target_amount",
          "type": "uint256"
        }
      ],
      "stateMutability": "nonpayable",
      "type": "constructor"
    },
    {
      "inputs": [],
      "name": "current_amount",
      "outputs": [
        {
          "internalType": "uint256",
          "name": "",
          "type": "uint256"
        }
      ],
      "stateMutability": "view",
      "type": "function"
    },
    {
      "inputs": [
        {
          "internalType": "uint256",
          "name": "_amount",
          "type": "uint256"
        }
      ],
      "name": "donate",
      "outputs": [],
      "stateMutability": "nonpayable",
      "type": "function"
    },
    {
      "inputs": [],
      "name": "getCurrentAmount",
      "outputs": [
        {
          "internalType": "uint256",
          "name": "",
          "type": "uint256"
        }
      ],
      "stateMutability": "view",
      "type": "function"
    },
    {
      "inputs": [],
      "name": "getTargetAmount",
      "outputs": [
        {
          "internalType": "uint256",
          "name": "",
          "type": "uint256"
        }
      ],
      "stateMutability": "view",
      "type": "function"
    },
    {
      "inputs": [],
      "name": "target_amount",
      "outputs": [
        {
          "internalType": "uint256",
          "name": "",
          "type": "uint256"
        }
      ],
      "stateMutability": "view",
      "type": "function"
    },
    {
      "inputs": [],
      "name": "wallet",
      "outputs": [
        {
          "internalType": "address",
          "name": "",
          "type": "address"
        }
      ],
      "stateMutability": "view",
      "type": "function"
    }
  ],
  "bytecode": "0x608060405234801561001057600080fd5b50604051610478380380610478833981810160405281019061003291906100aa565b816000806101000a81548173ffffffffffffffffffffffffffffffffffffffff021916908373ffffffffffffffffffffffffffffffffffffffff160217905550806001819055505050610150565b60008151905061008f81610122565b92915050565b6000815190506100a481610139565b92915050565b600080604083850312156100bd57600080fd5b60006100cb85828601610080565b92505060206100dc85828601610095565b9150509250929050565b60006100f1826100f8565b9050919050565b600073ffffffffffffffffffffffffffffffffffffffff82169050919050565b6000819050919050565b61012b816100e6565b811461013657600080fd5b50565b61014281610118565b811461014d57600080fd5b50565b6103198061015f6000396000f3fe608060405234801561001057600080fd5b50600436106100625760003560e01c806338ba3a1714610067578063521eb2731461008557806381e0ffae146100a357806391ac4b88146100c15780639f80e7c8146100df578063f14faf6f146100fd575b600080fd5b61006f610119565b60405161007c91906101f0565b60405180910390f35b61008d610123565b60405161009a91906101d5565b60405180910390f35b6100ab610147565b6040516100b891906101f0565b60405180910390f35b6100c961014d565b6040516100d691906101f0565b60405180910390f35b6100e7610157565b6040516100f491906101f0565b60405180910390f35b6101176004803603810190610112919061018e565b61015d565b005b6000600254905090565b60008054906101000a900473ffffffffffffffffffffffffffffffffffffffff1681565b60015481565b6000600154905090565b60025481565b806002600082825461016f919061020b565b9250508190555050565b600081359050610188816102cc565b92915050565b6000602082840312156101a057600080fd5b60006101ae84828501610179565b91505092915050565b6101c081610261565b82525050565b6101cf81610293565b82525050565b60006020820190506101ea60008301846101b7565b92915050565b600060208201905061020560008301846101c6565b92915050565b600061021682610293565b915061022183610293565b9250827fffffffffffffffffffffffffffffffffffffffffffffffffffffffffffffffff038211156102565761025561029d565b5b828201905092915050565b600061026c82610273565b9050919050565b600073ffffffffffffffffffffffffffffffffffffffff82169050919050565b6000819050919050565b7f4e487b7100000000000000000000000000000000000000000000000000000000600052601160045260246000fd5b6102d581610293565b81146102e057600080fd5b5056fea26469706673582212201066fec0396165c81d701c8b9221178b0e7bc591639342c4ed93526477e2dac664736f6c63430008040033",
  "linkReferences": {},
  "deployedLinkReferences": {}
}